{
  "_format": "hh-sol-artifact-1",
  "contractName": "NapFT",
  "sourceName": "contracts/NapFT.sol",
  "abi": [
    {
      "inputs": [
        {
          "internalType": "address",
          "name": "_paymentToken",
          "type": "address"
        }
      ],
      "stateMutability": "nonpayable",
      "type": "constructor"
    },
    {
      "inputs": [
        {
          "internalType": "address",
          "name": "sender",
          "type": "address"
        },
        {
          "internalType": "uint256",
          "name": "tokenId",
          "type": "uint256"
        },
        {
          "internalType": "address",
          "name": "owner",
          "type": "address"
        }
      ],
      "name": "ERC721IncorrectOwner",
      "type": "error"
    },
    {
      "inputs": [
        {
          "internalType": "address",
          "name": "operator",
          "type": "address"
        },
        {
          "internalType": "uint256",
          "name": "tokenId",
          "type": "uint256"
        }
      ],
      "name": "ERC721InsufficientApproval",
      "type": "error"
    },
    {
      "inputs": [
        {
          "internalType": "address",
          "name": "approver",
          "type": "address"
        }
      ],
      "name": "ERC721InvalidApprover",
      "type": "error"
    },
    {
      "inputs": [
        {
          "internalType": "address",
          "name": "operator",
          "type": "address"
        }
      ],
      "name": "ERC721InvalidOperator",
      "type": "error"
    },
    {
      "inputs": [
        {
          "internalType": "address",
          "name": "owner",
          "type": "address"
        }
      ],
      "name": "ERC721InvalidOwner",
      "type": "error"
    },
    {
      "inputs": [
        {
          "internalType": "address",
          "name": "receiver",
          "type": "address"
        }
      ],
      "name": "ERC721InvalidReceiver",
      "type": "error"
    },
    {
      "inputs": [
        {
          "internalType": "address",
          "name": "sender",
          "type": "address"
        }
      ],
      "name": "ERC721InvalidSender",
      "type": "error"
    },
    {
      "inputs": [
        {
          "internalType": "uint256",
          "name": "tokenId",
          "type": "uint256"
        }
      ],
      "name": "ERC721NonexistentToken",
      "type": "error"
    },
    {
      "inputs": [],
      "name": "ReentrancyGuardReentrantCall",
      "type": "error"
    },
    {
      "anonymous": false,
      "inputs": [
        {
          "indexed": true,
          "internalType": "address",
          "name": "owner",
          "type": "address"
        },
        {
          "indexed": true,
          "internalType": "address",
          "name": "approved",
          "type": "address"
        },
        {
          "indexed": true,
          "internalType": "uint256",
          "name": "tokenId",
          "type": "uint256"
        }
      ],
      "name": "Approval",
      "type": "event"
    },
    {
      "anonymous": false,
      "inputs": [
        {
          "indexed": true,
          "internalType": "address",
          "name": "owner",
          "type": "address"
        },
        {
          "indexed": true,
          "internalType": "address",
          "name": "operator",
          "type": "address"
        },
        {
          "indexed": false,
          "internalType": "bool",
          "name": "approved",
          "type": "bool"
        }
      ],
      "name": "ApprovalForAll",
      "type": "event"
    },
    {
      "anonymous": false,
      "inputs": [
        {
          "indexed": false,
          "internalType": "uint256",
          "name": "_fromTokenId",
          "type": "uint256"
        },
        {
          "indexed": false,
          "internalType": "uint256",
          "name": "_toTokenId",
          "type": "uint256"
        }
      ],
      "name": "BatchMetadataUpdate",
      "type": "event"
    },
    {
      "anonymous": false,
      "inputs": [
        {
          "indexed": true,
          "internalType": "address",
          "name": "from",
          "type": "address"
        },
        {
          "indexed": true,
          "internalType": "address",
          "name": "to",
          "type": "address"
        },
        {
          "indexed": false,
          "internalType": "uint256",
          "name": "tokenId",
          "type": "uint256"
        },
        {
          "indexed": false,
          "internalType": "uint256",
          "name": "price",
          "type": "uint256"
        }
      ],
      "name": "Buy",
      "type": "event"
    },
    {
      "anonymous": false,
      "inputs": [
        {
          "indexed": true,
          "internalType": "address",
          "name": "previousAdmin",
          "type": "address"
        },
        {
          "indexed": true,
          "internalType": "address",
          "name": "newAdmin",
          "type": "address"
        }
      ],
      "name": "LogChangeAdmin",
      "type": "event"
    },
    {
      "anonymous": false,
      "inputs": [
        {
          "indexed": false,
          "internalType": "uint256",
          "name": "_tokenId",
          "type": "uint256"
        }
      ],
      "name": "MetadataUpdate",
      "type": "event"
    },
    {
      "anonymous": false,
      "inputs": [
        {
          "indexed": true,
          "internalType": "address",
          "name": "creator",
          "type": "address"
        },
        {
          "indexed": true,
          "internalType": "uint256",
          "name": "tokenId",
          "type": "uint256"
        },
        {
          "indexed": true,
          "internalType": "string",
          "name": "tokenURI",
          "type": "string"
        }
      ],
      "name": "Mint",
      "type": "event"
    },
    {
      "anonymous": false,
      "inputs": [
        {
          "indexed": false,
          "internalType": "uint256",
          "name": "newFee",
          "type": "uint256"
        }
      ],
      "name": "ServiceFeeUpdated",
      "type": "event"
    },
    {
      "anonymous": false,
      "inputs": [
        {
          "indexed": true,
          "internalType": "address",
          "name": "from",
          "type": "address"
        },
        {
          "indexed": true,
          "internalType": "address",
          "name": "to",
          "type": "address"
        },
        {
          "indexed": true,
          "internalType": "uint256",
          "name": "tokenId",
          "type": "uint256"
        }
      ],
      "name": "Transfer",
      "type": "event"
    },
    {
      "inputs": [],
      "name": "Admin",
      "outputs": [
        {
          "internalType": "address",
          "name": "",
          "type": "address"
        }
      ],
      "stateMutability": "view",
      "type": "function"
    },
    {
      "inputs": [
        {
          "internalType": "address",
          "name": "to",
          "type": "address"
        },
        {
          "internalType": "uint256",
          "name": "tokenId",
          "type": "uint256"
        }
      ],
      "name": "approve",
      "outputs": [],
      "stateMutability": "nonpayable",
      "type": "function"
    },
    {
      "inputs": [
        {
          "internalType": "address",
          "name": "owner",
          "type": "address"
        }
      ],
      "name": "balanceOf",
      "outputs": [
        {
          "internalType": "uint256",
          "name": "",
          "type": "uint256"
        }
      ],
      "stateMutability": "view",
      "type": "function"
    },
    {
      "inputs": [
        {
          "internalType": "address",
          "name": "to",
          "type": "address"
        },
        {
          "internalType": "string[]",
          "name": "tokenURIs",
          "type": "string[]"
        }
      ],
      "name": "batchMint",
      "outputs": [],
      "stateMutability": "nonpayable",
      "type": "function"
    },
    {
      "inputs": [
        {
          "internalType": "uint256",
          "name": "tokenId",
          "type": "uint256"
        }
      ],
      "name": "buy",
      "outputs": [],
      "stateMutability": "nonpayable",
      "type": "function"
    },
    {
      "inputs": [
        {
          "internalType": "address",
          "name": "_newAdmin",
          "type": "address"
        }
      ],
      "name": "changeAdmin",
      "outputs": [],
      "stateMutability": "nonpayable",
      "type": "function"
    },
    {
      "inputs": [
        {
          "internalType": "string",
          "name": "tokenURI",
          "type": "string"
        },
        {
          "internalType": "uint256",
          "name": "price",
          "type": "uint256"
        },
        {
          "internalType": "uint8",
          "name": "royalityFee",
          "type": "uint8"
        }
      ],
      "name": "createToken",
      "outputs": [
        {
          "internalType": "uint256",
          "name": "",
          "type": "uint256"
        }
      ],
      "stateMutability": "nonpayable",
      "type": "function"
    },
    {
      "inputs": [
        {
          "internalType": "uint256",
          "name": "tokenId",
          "type": "uint256"
        }
      ],
      "name": "getApproved",
      "outputs": [
        {
          "internalType": "address",
          "name": "",
          "type": "address"
        }
      ],
      "stateMutability": "view",
      "type": "function"
    },
    {
      "inputs": [
        {
          "internalType": "uint256",
          "name": "tokenId",
          "type": "uint256"
        }
      ],
      "name": "getNFTDetails",
      "outputs": [
        {
          "internalType": "address",
          "name": "creator",
          "type": "address"
        },
        {
          "internalType": "address",
          "name": "owner",
          "type": "address"
        },
        {
          "internalType": "uint256",
          "name": "price",
          "type": "uint256"
        },
        {
          "internalType": "string",
          "name": "ipfsHash",
          "type": "string"
        },
        {
          "internalType": "uint256",
          "name": "royalityFee",
          "type": "uint256"
        }
      ],
      "stateMutability": "view",
      "type": "function"
    },
    {
      "inputs": [
        {
          "internalType": "address",
          "name": "owner",
          "type": "address"
        },
        {
          "internalType": "address",
          "name": "operator",
          "type": "address"
        }
      ],
      "name": "isApprovedForAll",
      "outputs": [
        {
          "internalType": "bool",
          "name": "",
          "type": "bool"
        }
      ],
      "stateMutability": "view",
      "type": "function"
    },
    {
      "inputs": [],
      "name": "name",
      "outputs": [
        {
          "internalType": "string",
          "name": "",
          "type": "string"
        }
      ],
      "stateMutability": "view",
      "type": "function"
    },
    {
      "inputs": [
        {
          "internalType": "uint256",
          "name": "tokenId",
          "type": "uint256"
        }
      ],
      "name": "ownerOf",
      "outputs": [
        {
          "internalType": "address",
          "name": "",
          "type": "address"
        }
      ],
      "stateMutability": "view",
      "type": "function"
    },
    {
      "inputs": [],
      "name": "paymentToken",
      "outputs": [
        {
          "internalType": "contract IERC20",
          "name": "",
          "type": "address"
        }
      ],
      "stateMutability": "view",
      "type": "function"
    },
    {
      "inputs": [
        {
          "internalType": "address",
          "name": "from",
          "type": "address"
        },
        {
          "internalType": "address",
          "name": "to",
          "type": "address"
        },
        {
          "internalType": "uint256",
          "name": "tokenId",
          "type": "uint256"
        }
      ],
      "name": "safeTransferFrom",
      "outputs": [],
      "stateMutability": "nonpayable",
      "type": "function"
    },
    {
      "inputs": [
        {
          "internalType": "address",
          "name": "from",
          "type": "address"
        },
        {
          "internalType": "address",
          "name": "to",
          "type": "address"
        },
        {
          "internalType": "uint256",
          "name": "tokenId",
          "type": "uint256"
        },
        {
          "internalType": "bytes",
          "name": "data",
          "type": "bytes"
        }
      ],
      "name": "safeTransferFrom",
      "outputs": [],
      "stateMutability": "nonpayable",
      "type": "function"
    },
    {
      "inputs": [],
      "name": "serviceFee",
      "outputs": [
        {
          "internalType": "uint256",
          "name": "",
          "type": "uint256"
        }
      ],
      "stateMutability": "view",
      "type": "function"
    },
    {
      "inputs": [
        {
          "internalType": "address",
          "name": "operator",
          "type": "address"
        },
        {
          "internalType": "bool",
          "name": "approved",
          "type": "bool"
        }
      ],
      "name": "setApprovalForAll",
      "outputs": [],
      "stateMutability": "nonpayable",
      "type": "function"
    },
    {
      "inputs": [
        {
          "internalType": "bytes4",
          "name": "interfaceId",
          "type": "bytes4"
        }
      ],
      "name": "supportsInterface",
      "outputs": [
        {
          "internalType": "bool",
          "name": "",
          "type": "bool"
        }
      ],
      "stateMutability": "view",
      "type": "function"
    },
    {
      "inputs": [],
      "name": "symbol",
      "outputs": [
        {
          "internalType": "string",
          "name": "",
          "type": "string"
        }
      ],
      "stateMutability": "view",
      "type": "function"
    },
    {
      "inputs": [
        {
          "internalType": "uint256",
          "name": "tokenId",
          "type": "uint256"
        }
      ],
      "name": "tokenURI",
      "outputs": [
        {
          "internalType": "string",
          "name": "",
          "type": "string"
        }
      ],
      "stateMutability": "view",
      "type": "function"
    },
    {
      "inputs": [
        {
          "internalType": "address",
          "name": "from",
          "type": "address"
        },
        {
          "internalType": "address",
          "name": "to",
          "type": "address"
        },
        {
          "internalType": "uint256",
          "name": "tokenId",
          "type": "uint256"
        }
      ],
      "name": "transferFrom",
      "outputs": [],
      "stateMutability": "nonpayable",
      "type": "function"
    },
    {
      "inputs": [
        {
          "internalType": "uint256",
          "name": "_serviceFee",
          "type": "uint256"
        }
      ],
      "name": "updateServiceFee",
      "outputs": [],
      "stateMutability": "nonpayable",
      "type": "function"
    },
    {
      "inputs": [],
      "name": "withdraw",
      "outputs": [],
      "stateMutability": "nonpayable",
      "type": "function"
    }
  ],
  "bytecode": "0x60a060405234801561001057600080fd5b5060405161234e38038061234e83398101604081905261002f916100d9565b6040518060400160405280600581526020016413985c199d60da1b81525060405180604001604052806005815260200164139054119560da1b815250816000908161007a91906101a8565b50600161008782826101a8565b5050600160075550336080819052600980546001600160a01b03199081168317909155600a8054821690921790915560fa600b55600c80549091166001600160a01b0392909216919091179055610266565b6000602082840312156100eb57600080fd5b81516001600160a01b038116811461010257600080fd5b9392505050565b634e487b7160e01b600052604160045260246000fd5b600181811c9082168061013357607f821691505b60208210810361015357634e487b7160e01b600052602260045260246000fd5b50919050565b601f8211156101a357806000526020600020601f840160051c810160208510156101805750805b601f840160051c820191505b818110156101a0576000815560010161018c565b50505b505050565b81516001600160401b038111156101c1576101c1610109565b6101d5816101cf845461011f565b84610159565b6020601f82116001811461020957600083156101f15750848201515b600019600385901b1c1916600184901b1784556101a0565b600084815260208120601f198516915b828110156102395787850151825560209485019460019092019101610219565b50848210156102575786840151600019600387901b60f8161c191681555b50505050600190811b01905550565b6080516120cd610281600039600061087e01526120cd6000f3fe608060405234801561001057600080fd5b506004361061014d5760003560e01c806382260f35116100c3578063b88d4fde1161007c578063b88d4fde146102c5578063c87b56dd146102d8578063d96a094a146102eb578063e985e9c5146102fe578063f2f18baa14610311578063ff1b636d1461032457600080fd5b806382260f35146102575780638abdf5aa1461027b5780638f2839701461028457806395d89b4114610297578063a22cb4651461029f578063ae4b7c26146102b257600080fd5b80633013ce29116101155780633013ce29146101e25780633ccfd60b146101f557806342842e0e146101fd5780636352211e1461021057806370a082311461022357806378f225e51461024457600080fd5b806301ffc9a71461015257806306fdde031461017a578063081812fc1461018f578063095ea7b3146101ba57806323b872dd146101cf575b600080fd5b610165610160366004611919565b610337565b60405190151581526020015b60405180910390f35b610182610362565b6040516101719190611986565b6101a261019d366004611999565b6103f4565b6040516001600160a01b039091168152602001610171565b6101cd6101c83660046119ce565b61041d565b005b6101cd6101dd3660046119f8565b61042c565b600c546101a2906001600160a01b031681565b6101cd6104bc565b6101cd61020b3660046119f8565b61060d565b6101a261021e366004611999565b61062d565b610236610231366004611a35565b610638565b604051908152602001610171565b610236610252366004611b13565b610680565b61026a610265366004611999565b6107e5565b604051610171959493929190611b74565b610236600b5481565b6101cd610292366004611a35565b610873565b610182610958565b6101cd6102ad366004611bc7565b610967565b6101cd6102c0366004611999565b610972565b6101cd6102d3366004611bfe565b6109d7565b6101826102e6366004611999565b6109ef565b6101cd6102f9366004611999565b610b00565b61016561030c366004611c7a565b610e66565b6101cd61031f366004611cad565b610e94565b6009546101a2906001600160a01b031681565b60006001600160e01b03198216632483248360e11b148061035c575061035c8261103c565b92915050565b60606000805461037190611d92565b80601f016020809104026020016040519081016040528092919081815260200182805461039d90611d92565b80156103ea5780601f106103bf576101008083540402835291602001916103ea565b820191906000526020600020905b8154815290600101906020018083116103cd57829003601f168201915b5050505050905090565b60006103ff8261108c565b506000828152600460205260409020546001600160a01b031661035c565b6104288282336110c5565b5050565b6001600160a01b03821661045b57604051633250574960e11b8152600060048201526024015b60405180910390fd5b60006104688383336110d2565b9050836001600160a01b0316816001600160a01b0316146104b6576040516364283d7b60e01b81526001600160a01b0380861660048301526024820184905282166044820152606401610452565b50505050565b6009546001600160a01b031633146104e65760405162461bcd60e51b815260040161045290611dcc565b600c546040516370a0823160e01b81523060048201526001600160a01b039091169063a9059cbb90339083906370a0823190602401602060405180830381865afa158015610538573d6000803e3d6000fd5b505050506040513d601f19601f8201168201806040525081019061055c9190611e12565b6040516001600160e01b031960e085901b1681526001600160a01b03909216600483015260248201526044016020604051808303816000875af11580156105a7573d6000803e3d6000fd5b505050506040513d601f19601f820116820180604052508101906105cb9190611e2b565b61060b5760405162461bcd60e51b815260206004820152601160248201527015da5d1a191c985dd85b0819985a5b1959607a1b6044820152606401610452565b565b610628838383604051806020016040528060008152506109d7565b505050565b600061035c8261108c565b60006001600160a01b038216610664576040516322718ad960e21b815260006004820152602401610452565b506001600160a01b031660009081526003602052604090205490565b60003233146106c95760405162461bcd60e51b815260206004820152601560248201527413db9b1e481153d04818d85b881b5a5b9d08139195605a1b6044820152606401610452565b600083116107195760405162461bcd60e51b815260206004820152601f60248201527f5072696365206d7573742062652067726561746572207468616e207a65726f006044820152606401610452565b6008805490600061072983611e5e565b90915550506008546000818152600f602090815260408083208054600181018255908452828420018054336001600160a01b03199091168117909155848452600d8352818420889055600e909252909120805460ff191660ff861617905561079190826111cb565b61079b81866111e5565b846040516107a99190611e77565b60405190819003812090829033907f85a66b9141978db9980f7e0ce3b468cebf4f7999f32b23091c5c03e798b1ba7a90600090a4949350505050565b600080600060606000600f600087815260200190815260200160002060008154811061081357610813611e93565b6000918252602090912001546001600160a01b031694506108338661062d565b6000878152600d60205260409020549094509250610850866109ef565b6000968752600e602052604090962054949693959294929360ff90931692915050565b336001600160a01b037f000000000000000000000000000000000000000000000000000000000000000016146108fa5760405162461bcd60e51b815260206004820152602660248201527f4f6e6c7920746865206f776e65722063616e20706572666f726d20746869732060448201526530b1ba34b7b760d11b6064820152608401610452565b60098054600a80546001600160a01b03199081166001600160a01b03808516918217909355918516921682179092556040519091907f3be77208ba89831fa93dc61f71fb71b2dcaaec821ee020ccd7c910919128b93690600090a350565b60606001805461037190611d92565b610428338383611235565b6009546001600160a01b0316331461099c5760405162461bcd60e51b815260040161045290611dcc565b600b8190556040518181527fcb6d7cd9a715c819bc5a96c171f645b81d4d65b57cfe7d6b5e8a12f78022995d9060200160405180910390a150565b6109e284848461042c565b6104b633858585856112d4565b60606109fa8261108c565b5060008281526006602052604081208054610a1490611d92565b80601f0160208091040260200160405190810160405280929190818152602001828054610a4090611d92565b8015610a8d5780601f10610a6257610100808354040283529160200191610a8d565b820191906000526020600020905b815481529060010190602001808311610a7057829003601f168201915b505050505090506000610aab60408051602081019091526000815290565b90508051600003610abd575092915050565b815115610aef578082604051602001610ad7929190611ea9565b60405160208183030381529060405292505050919050565b610af8846113ff565b949350505050565b610b08611474565b610b118161062d565b6001600160a01b03163303610b685760405162461bcd60e51b815260206004820152601760248201527f43616e6e6f742062757920796f7572206f776e204e46540000000000000000006044820152606401610452565b6000818152600d602052604081205490610b818361062d565b6000848152600e602052604081205491925090606490610ba49060ff1685611ed8565b610bae9190611eef565b90506000612710600b5485610bc39190611ed8565b610bcd9190611eef565b90506000610bdb8284611f11565b610be59086611f24565b600c546040516323b872dd60e01b81523360048201526001600160a01b038781166024830152604482018490529293509116906323b872dd906064016020604051808303816000875af1158015610c40573d6000803e3d6000fd5b505050506040513d601f19601f82011682018060405250810190610c649190611e2b565b610cb05760405162461bcd60e51b815260206004820152601860248201527f5061796d656e7420746f2073656c6c6572206661696c656400000000000000006044820152606401610452565b600c546009546040516323b872dd60e01b81523360048201526001600160a01b039182166024820152604481018590529116906323b872dd906064016020604051808303816000875af1158015610d0b573d6000803e3d6000fd5b505050506040513d601f19601f82011682018060405250810190610d2f9190611e2b565b610d7b5760405162461bcd60e51b815260206004820152601a60248201527f5365727669636520666565207061796d656e74206661696c65640000000000006044820152606401610452565b6000868152600f602090815260408220805460018101825590835291200180546001600160a01b03191633908117909155610db89085908861149e565b33610dc28761062d565b6001600160a01b031614610e0e5760405162461bcd60e51b8152602060048201526013602482015272139195081d1c985b9cd9995c8819985a5b1959606a1b6044820152606401610452565b604080518781526020810187905233916001600160a01b038716917f89f5adc174562e07c9c9b1cae7109bbecb21cf9d1b2847e550042b8653c54a0e910160405180910390a35050505050610e636001600755565b50565b6001600160a01b03918216600090815260056020908152604080832093909416825291909152205460ff1690565b323314610edb5760405162461bcd60e51b815260206004820152601560248201527413db9b1e481153d04818d85b881b5a5b9d08139195605a1b6044820152606401610452565b805180610f2a5760405162461bcd60e51b815260206004820152601a60248201527f4d757374206d696e74206174206c65617374206f6e65204e46540000000000006044820152606401610452565b60005b818110156104b65760088054906000610f4583611e5e565b90915550506008546000818152600f6020908152604080832080546001810182559084528284200180546001600160a01b0319166001600160a01b038a16179055838352600d8252808320839055600e9091529020805460ff19169055610fac85826111cb565b610fcf81858481518110610fc257610fc2611e93565b60200260200101516111e5565b838281518110610fe157610fe1611e93565b6020026020010151604051610ff69190611e77565b6040519081900381209082906001600160a01b038816907f85a66b9141978db9980f7e0ce3b468cebf4f7999f32b23091c5c03e798b1ba7a90600090a450600101610f2d565b60006001600160e01b031982166380ac58cd60e01b148061106d57506001600160e01b03198216635b5e139f60e01b145b8061035c57506301ffc9a760e01b6001600160e01b031983161461035c565b6000818152600260205260408120546001600160a01b03168061035c57604051637e27328960e01b815260048101849052602401610452565b610628838383600161154e565b6000828152600260205260408120546001600160a01b03908116908316156110ff576110ff818486611654565b6001600160a01b0381161561113d5761111c60008560008061154e565b6001600160a01b038116600090815260036020526040902080546000190190555b6001600160a01b0385161561116c576001600160a01b0385166000908152600360205260409020805460010190555b60008481526002602052604080822080546001600160a01b0319166001600160a01b0389811691821790925591518793918516917fddf252ad1be2c89b69c2b068fc378daa952ba7f163c4a11628f55a4df523b3ef91a4949350505050565b6104288282604051806020016040528060008152506116b8565b60008281526006602052604090206111fd8282611f7e565b506040518281527ff8e1a15aba9398e019f0b49df1a4fde98ee17ae345cb5f6b5e2c27f5033e8ce79060200160405180910390a15050565b6001600160a01b03821661126757604051630b61174360e31b81526001600160a01b0383166004820152602401610452565b6001600160a01b03838116600081815260056020908152604080832094871680845294825291829020805460ff191686151590811790915591519182527f17307eab39ab6107e8899845ad3d59bd9653f200f220920489ca2b5937696c31910160405180910390a3505050565b6001600160a01b0383163b156113f857604051630a85bd0160e11b81526001600160a01b0384169063150b7a029061131690889088908790879060040161203d565b6020604051808303816000875af1925050508015611351575060408051601f3d908101601f1916820190925261134e9181019061207a565b60015b6113ba573d80801561137f576040519150601f19603f3d011682016040523d82523d6000602084013e611384565b606091505b5080516000036113b257604051633250574960e11b81526001600160a01b0385166004820152602401610452565b805181602001fd5b6001600160e01b03198116630a85bd0160e11b146113f657604051633250574960e11b81526001600160a01b0385166004820152602401610452565b505b5050505050565b606061140a8261108c565b50600061142260408051602081019091526000815290565b90506000815111611442576040518060200160405280600081525061146d565b8061144c846116d0565b60405160200161145d929190611ea9565b6040516020818303038152906040525b9392505050565b60026007540361149757604051633ee5aeb560e01b815260040160405180910390fd5b6002600755565b6001600160a01b0382166114c857604051633250574960e11b815260006004820152602401610452565b60006114d6838360006110d2565b90506001600160a01b03811661150257604051637e27328960e01b815260048101839052602401610452565b836001600160a01b0316816001600160a01b0316146104b6576040516364283d7b60e01b81526001600160a01b0380861660048301526024820184905282166044820152606401610452565b808061156257506001600160a01b03821615155b156116245760006115728461108c565b90506001600160a01b0383161580159061159e5750826001600160a01b0316816001600160a01b031614155b80156115b157506115af8184610e66565b155b156115da5760405163a9fbf51f60e01b81526001600160a01b0384166004820152602401610452565b81156116225783856001600160a01b0316826001600160a01b03167f8c5be1e5ebec7d5bd14f71427d1e84f3dd0314c0f7b2291e5b200ac8c7c3b92560405160405180910390a45b505b5050600090815260046020526040902080546001600160a01b0319166001600160a01b0392909216919091179055565b61165f838383611763565b610628576001600160a01b03831661168d57604051637e27328960e01b815260048101829052602401610452565b60405163177e802f60e01b81526001600160a01b038316600482015260248101829052604401610452565b6116c283836117c6565b6106283360008585856112d4565b606060006116dd8361182b565b600101905060008167ffffffffffffffff8111156116fd576116fd611a50565b6040519080825280601f01601f191660200182016040528015611727576020820181803683370190505b5090508181016020015b600019016f181899199a1a9b1b9c1cb0b131b232b360811b600a86061a8153600a850494508461173157509392505050565b60006001600160a01b03831615801590610af85750826001600160a01b0316846001600160a01b0316148061179d575061179d8484610e66565b80610af85750506000908152600460205260409020546001600160a01b03908116911614919050565b6001600160a01b0382166117f057604051633250574960e11b815260006004820152602401610452565b60006117fe838360006110d2565b90506001600160a01b03811615610628576040516339e3563760e11b815260006004820152602401610452565b60008072184f03e93ff9f4daa797ed6e38ed64bf6a1f0160401b831061186a5772184f03e93ff9f4daa797ed6e38ed64bf6a1f0160401b830492506040015b6d04ee2d6d415b85acef81000000008310611896576d04ee2d6d415b85acef8100000000830492506020015b662386f26fc1000083106118b457662386f26fc10000830492506010015b6305f5e10083106118cc576305f5e100830492506008015b61271083106118e057612710830492506004015b606483106118f2576064830492506002015b600a831061035c5760010192915050565b6001600160e01b031981168114610e6357600080fd5b60006020828403121561192b57600080fd5b813561146d81611903565b60005b83811015611951578181015183820152602001611939565b50506000910152565b60008151808452611972816020860160208601611936565b601f01601f19169290920160200192915050565b60208152600061146d602083018461195a565b6000602082840312156119ab57600080fd5b5035919050565b80356001600160a01b03811681146119c957600080fd5b919050565b600080604083850312156119e157600080fd5b6119ea836119b2565b946020939093013593505050565b600080600060608486031215611a0d57600080fd5b611a16846119b2565b9250611a24602085016119b2565b929592945050506040919091013590565b600060208284031215611a4757600080fd5b61146d826119b2565b634e487b7160e01b600052604160045260246000fd5b604051601f8201601f1916810167ffffffffffffffff81118282101715611a8f57611a8f611a50565b604052919050565b60008067ffffffffffffffff841115611ab257611ab2611a50565b50601f8301601f1916602001611ac781611a66565b915050828152838383011115611adc57600080fd5b828260208301376000602084830101529392505050565b600082601f830112611b0457600080fd5b61146d83833560208501611a97565b600080600060608486031215611b2857600080fd5b833567ffffffffffffffff811115611b3f57600080fd5b611b4b86828701611af3565b93505060208401359150604084013560ff81168114611b6957600080fd5b809150509250925092565b6001600160a01b038681168252851660208201526040810184905260a060608201819052600090611ba79083018561195a565b90508260808301529695505050505050565b8015158114610e6357600080fd5b60008060408385031215611bda57600080fd5b611be3836119b2565b91506020830135611bf381611bb9565b809150509250929050565b60008060008060808587031215611c1457600080fd5b611c1d856119b2565b9350611c2b602086016119b2565b925060408501359150606085013567ffffffffffffffff811115611c4e57600080fd5b8501601f81018713611c5f57600080fd5b611c6e87823560208401611a97565b91505092959194509250565b60008060408385031215611c8d57600080fd5b611c96836119b2565b9150611ca4602084016119b2565b90509250929050565b60008060408385031215611cc057600080fd5b611cc9836119b2565b9150602083013567ffffffffffffffff811115611ce557600080fd5b8301601f81018513611cf657600080fd5b803567ffffffffffffffff811115611d1057611d10611a50565b8060051b611d2060208201611a66565b91825260208184018101929081019088841115611d3c57600080fd5b6020850192505b83831015611d8357823567ffffffffffffffff811115611d6257600080fd5b611d718a602083890101611af3565b83525060209283019290910190611d43565b80955050505050509250929050565b600181811c90821680611da657607f821691505b602082108103611dc657634e487b7160e01b600052602260045260246000fd5b50919050565b60208082526026908201527f4f6e6c79207468652061646d696e2063616e20706572666f726d20746869732060408201526530b1ba34b7b760d11b606082015260800190565b600060208284031215611e2457600080fd5b5051919050565b600060208284031215611e3d57600080fd5b815161146d81611bb9565b634e487b7160e01b600052601160045260246000fd5b600060018201611e7057611e70611e48565b5060010190565b60008251611e89818460208701611936565b9190910192915050565b634e487b7160e01b600052603260045260246000fd5b60008351611ebb818460208801611936565b835190830190611ecf818360208801611936565b01949350505050565b808202811582820484141761035c5761035c611e48565b600082611f0c57634e487b7160e01b600052601260045260246000fd5b500490565b8082018082111561035c5761035c611e48565b8181038181111561035c5761035c611e48565b601f82111561062857806000526020600020601f840160051c81016020851015611f5e5750805b601f840160051c820191505b818110156113f85760008155600101611f6a565b815167ffffffffffffffff811115611f9857611f98611a50565b611fac81611fa68454611d92565b84611f37565b6020601f821160018114611fe05760008315611fc85750848201515b600019600385901b1c1916600184901b1784556113f8565b600084815260208120601f198516915b828110156120105787850151825560209485019460019092019101611ff0565b508482101561202e5786840151600019600387901b60f8161c191681555b50505050600190811b01905550565b6001600160a01b03858116825284166020820152604081018390526080606082018190526000906120709083018461195a565b9695505050505050565b60006020828403121561208c57600080fd5b815161146d8161190356fea2646970667358221220165bf6402f596e392b902c3389a167f39259db47fc20df48195a654d19c192da64736f6c634300081b0033",
  "linkReferences": {},
  "deployedLinkReferences": {}
}